:100000000C942A000C947A040C9482040C94AC0492
:100010000C9447000C9447000C94FD050C94AB0520
:100020000C94D4050C9482050C9447000C94470062
:100030000C9447000C9447000C9447000C94470024
:100040000C9447000C9447000C9447000C94470014
:100050000C94470011241FBECFE5D8E0DEBFCDBF12
:1000600010E0A0E6B0E0E8E2FDE002C005900D92ED
:10007000A23DB107D9F720E0A2EDB0E001C01D928A
:10008000A03EB207E1F70E9481020C9492060C9404
:10009000000061E08CE00E94E90361E08DE00E94D5
:1000A000E90361E08EE00E94E90361E08FE00C94D7
:1000B000E903CF93C82F60E081E00E94E9036C2F31
:1000C000661F6627661F86E00E94E903C6FB662757
:1000D00060F985E00E94E903C5FB662760F984E0CA
:1000E0000E94E903C4FB662760F983E00E94E903EC
:1000F00061E082E00E94E9038FEC97E00197F1F75D
:1001000000C0000060E082E00E94E9038FEC97E00D
:100110000197F1F700C00000C3FB662760F986E095
:100120000E94E903C2FB662760F985E00E94E903AB
:10013000C1FB662760F984E00E94E9036C2F6170BF
:1001400083E00E94E90361E082E00E94E9038FEC12
:1001500097E00197F1F700C0000060E082E00E94A4
:10016000E9038FEC97E00197F1F700C00000CF9111
:100170000895CF93C82F61E081E00E94E9036C2FBE
:10018000661F6627661F86E00E94E903C6FB662796
:1001900060F985E00E94E903C5FB662760F984E009
:1001A0000E94E903C4FB662760F983E00E94E9032B
:1001B00061E082E00E94E9038FEC97E00197F1F79C
:1001C00000C0000060E082E00E94E9038FEC97E04D
:1001D0000197F1F700C00000C3FB662760F986E0D5
:1001E0000E94E903C2FB662760F985E00E94E903EB
:1001F000C1FB662760F984E00E94E9036C2F6170FF
:1002000083E00E94E90361E082E00E94E9038FEC51
:1002100097E00197F1F700C0000060E082E00E94E3
:10022000E9038FEC97E00197F1F700C00000CF9150
:1002300008952FE788E391E0215080409040E1F756
:1002400000C0000082E00E94590088E20E9459002C
:100250008CE00E94590081E00E9459008FEC97E0E9
:100260000197F1F700C0000086E00C9459000F934D
:100270001F93CF938C01C0E0F801EC0FF11D80813A
:10028000C81720F40E94B900CF5FF6CFCF911F911D
:100290000F910895811103C0862F806804C08130BA
:1002A00021F480EC860F0C945900089581E00E949F
:1002B00059008FEC97E00197F1F700C00000089516
:1002C0004F925F926F927F92AF92BF92CF92DF92E6
:1002D000EF92FF921F93CF93DF93CDB7DEB72A97AC
:1002E0000FB6F894DEBF0FBECDBF6B017C01611568
:1002F000710581059105B1F480E32A960FB6F89453
:10030000DEBF0FBECDBFDF91CF911F91FF90EF9069
:10031000DF90CF90BF90AF907F906F905F904F90A5
:100320000C94B90097FF0BC0F094E094D094C09463
:10033000C11CD11CE11CF11C8DE20E94B90010E02F
:100340009AE0492E512C612C712CAA24A394B12C33
:10035000AC0EBD1EA10EB11CC701B601A3019201D6
:100360000E947306605DF50160831F5F69017A0179
:10037000C114D104E104F10441F7112341F0FE015D
:10038000E10FF11D80810E94B9001150F6CF2A962D
:100390000FB6F894DEBF0FBECDBFDF91CF911F9196
:1003A000FF90EF90DF90CF90BF90AF907F906F90D5
:1003B0005F904F90089562E083E00E94D50483E04F
:1003C0000E94F50462E083E00E94100583E00E9431
:1003D0004C0583E00E9467058FEF90E097BD86BDD6
:1003E000089590E0FC01EE0FFF1F8E0F9F1FFC0190
:1003F000E05AFF4F808180958CBF21818FEF90E084
:10040000AC01421B51095BBD4ABD2281821B91098F
:1004100099BD88BD089595B321E030E001C0220F59
:100420008A95EAF7292B25BB089595B321E030E0A2
:1004300001C0220F8A95EAF72095292325BB08954C
:10044000FC018081DB018C9390E0292F30E0DF01FB
:10045000A20FB31F8C919F5F8D3359F0492F50E04D
:10046000DF01A40FB51F8C91DB01A40FB51F8C9386
:10047000ECCFDB01A20FB31F1C9280E0DF01A90FBC
:10048000B11D2C91222331F020532A3008F4822F01
:100490009F5FF4CF0895DC0190E040E0242F30E02E
:1004A000FB01E20FF31F5081552349F0FD01E20FDC
:1004B000F31F8081581305C04F5F91E0EFCF892F64
:1004C000089580E00895EF92FF920F931F93CF93CA
:1004D0007B018C01C0E0B701F801808191810E940D
:1004E0004B02811107C0CF5F0C5F1F4FC43099F7DB
:1004F00088EC01C08C2FCF911F910F91FF90EF904E
:100500000895CF93DF93CDB7DEB7E4970FB6F89495
:10051000DEBF0FBECDBF0E940B030E9419010E94D7
:10052000490066E080E00E94F6020E9426060E94D2
:10053000DB0178948CE0E8E7F0E0DE019996019029
:100540000D928A95E1F760E082E00E946A04CE0194
:1005500045960E94300660E080E00E944A01CE018C
:1005600045960E94370184EA90E00E943701BE015F
:100570006F5F7F4FCE0145960E942002182FBE016B
:100580006F5F7F4FCE0189960E946302082F883CDF
:10059000A1F40E94560162E081E00E944A0184EBCE
:1005A00090E00E9437012FEF89E698E121508040CA
:1005B0009040E1F700C000000AC06DE081E00E94B9
:1005C0004A01612F70E080E090E00E946001E1E06C
:1005D000F0E0EC0FFD1F24E0029FE00DF11D11245F
:1005E00002A4F3A5E02D812F0995B1CF813041F010
:1005F00020F0823039F43F9A04C03F983E9802C000
:100600003F983E9A86B1887F86B986B16770682B1D
:1006100066B9379A0895E4E8F0E040E081E090E0C0
:100620005191342F369536953695242F27705130B9
:1006300009F443C020F0523009F482C0C5C0323002
:1006400001F1333061F1313071F05AB3BC0102C0B5
:10065000660F771F2A95E2F79B01352F322B3ABBA5
:100660003BB320953DC057B3BC0102C0660F771F56
:100670002A95E2F79B01352F322B37BB38B32095F3
:100680003EC054B3BC0102C0660F771F2A95E2F743
:100690009B01352F322B34BB35B320953FC051B36E
:1006A000BC0102C0660F771F2A95E2F79B01352F28
:1006B000322B31BB32B3209541C0323011F133308F
:1006C00081F1313079F05AB3BC0102C0660F771F57
:1006D0002A95E2F79B012095352F32233ABB3BB395
:1006E000232342C057B3BC0102C0660F771F2A956F
:1006F000E2F79B012095352F322337BB38B32323F4
:1007000043C054B3BC0102C0660F771F2A95E2F7BD
:100710009B012095352F322334BB35B3232325BBD2
:1007200053C051B3BC0102C0660F771F2A95E2F790
:100730009B012095352F322331BB32B3232343C095
:10074000323021F1333089F1313081F05AB3BC01BC
:1007500002C0660F771F2A95E2F79B01362F30956E
:1007600035233ABB3BB3232B2BBB2EC057B3BC0165
:1007700002C0660F771F2A95E2F79B01362F30954E
:10078000352337BB38B3232B28BB1EC054B3BC0161
:1007900002C0660F771F2A95E2F79B01362F30952E
:1007A000352334BB35B3232BBACF51B3BC0102C0C0
:1007B000660F771F2A95E2F79B01362F3095352378
:1007C00031BB32B3232B22BB4F5F403209F028CF1D
:1007D0000895982F96959695969587706130C1F5F6
:1007E000913091F028F09230D9F0933029F10895AA
:1007F0004BB321E030E0B90102C0660F771F8A9544
:10080000E2F7CB01842B3AC048B321E030E0B901D4
:1008100002C0660F771F8A95E2F7CB01842B3CC09C
:1008200045B321E030E0B90102C0660F771F8A9519
:10083000E2F7CB01842B3EC042B321E030E0B901A6
:1008400002C0660F771F8A95E2F7CB01842B40C068
:1008500061113FC09130A1F028F09230F9F093304F
:1008600059F108954BB321E030E0B90102C0660FA1
:10087000771F8A95E2F7CB01809584238BBB08957F
:1008800048B321E030E0B90102C0660F771F8A95B6
:10089000E2F7CB018095842388BB089545B321E01E
:1008A00030E0B90102C0660F771F8A95E2F7CB01ED
:1008B0008095842385BB089542B321E030E0B901DF
:1008C00002C0660F771F8A95E2F7CB0180958423DB
:1008D00082BB0895813041F028F0823039F08330B6
:1008E00039F008956BBB089568BB089565BB089502
:1008F00062BB0895E091D600F091D700309709F0DF
:100900000995089578941F920F920FB60F921124B3
:100910002F933F934F935F936F937F938F939F9307
:10092000AF93BF93EF93FF93E091D400F091D50084
:10093000309709F00995FF91EF91BF91AF919F9189
:100940008F917F916F915F914F913F912F910F9078
:100950000FBE0F901F9018951F920F920FB60F9217
:1009600011242F933F934F935F936F937F938F93B4
:100970009F93AF93BF93EF93FF93E091D200F091D9
:10098000D300309709F00995FF91EF91BF91AF9196
:100990009F918F917F916F915F914F913F912F9197
:1009A0000F900FBE0F901F901895813059F038F0BE
:1009B000823071F0833091F483B780640BC083B7C9
:1009C0008F7B02C083B7806483BF83B7877F05C0F6
:1009D00083B78F7B83BF83B7886083BF83B7887FEC
:1009E00083BF83B7682B63BF0895813049F028F037
:1009F000823061F0833069F0089583B78F7E02C042
:100A000083B7806183BF83B78F7D08C083B78F7E34
:100A100002C083B7806183BF83B7806283BF0895BC
:100A20008230D9F050F4882379F0813071F58FB598
:100A30008E7F8FBD8FB58D7F21C08330D1F0843004
:100A400021F58FB5816017C08FB58E7F8FBD8FB5B3
:100A50008D7F8FBD8EB5877F08C08FB58E7F8FBD90
:100A60008FB58D7F8FBD8EB588608EBD8EB58F7E24
:100A70000BC08FB58E7F8FBD8FB582608FBD8EB559
:100A800088608EBD8EB580618EBD8EB5887F8EBD2F
:100A90008EB5682B6EBD0895813049F028F0823004
:100AA00061F0833069F008958FB58F7B02C08FB5F8
:100AB00080648FBD8FB58F7708C08FB58F7B02C0E4
:100AC0008FB580648FBD8FB580688FBD08958130EC
:100AD00049F028F0823061F0833069F008958FB5D5
:100AE0008F7E02C08FB580618FBD8FB58F7D08C0AE
:100AF0008FB58F7E02C08FB580618FBD8FB580624C
:100B00008FBD08951F920F920FB60F9211242F934D
:100B10003F934F935F936F937F938F939F93AF9385
:100B2000BF93EF93FF93E091DE00F091DF003097E9
:100B300009F00995FF91EF91BF91AF919F918F912E
:100B40007F916F915F914F913F912F910F900FBEC9
:100B50000F901F9018951F920F920FB60F921124AD
:100B60002F933F934F935F936F937F938F939F93B5
:100B7000AF93BF93EF93FF93E091DC00F091DD0022
:100B8000309709F00995FF91EF91BF91AF919F9137
:100B90008F917F916F915F914F913F912F910F9026
:100BA0000FBE0F901F9018951F920F920FB60F92C5
:100BB00011242F933F934F935F936F937F938F9362
:100BC0009F93AF93BF93EF93FF93E091DA00F0917F
:100BD000DB00309709F00995FF91EF91BF91AF913C
:100BE0009F918F917F916F915F914F913F912F9145
:100BF0000F900FBE0F901F9018951F920F920FB677
:100C00000F9211242F933F934F935F936F937F9392
:100C10008F939F93AF93BF93EF93FF93E091D8008F
:100C2000F091D900309709F00995FF91EF91BF91AC
:100C3000AF919F918F917F916F915F914F913F9174
:100C40002F910F900FBE0F901F90189583E389B9D5
:100C50005998539A549A08955F9BFECF8CB108958A
:100C6000EF92FF920F931F93CF938C010E942C065B
:100C7000F8018083C0E0F801EC0FF11D8081833220
:100C800049F0CF5F7801EC0EF11C0E942C06F701B1
:100C90008083F1CF1082CF911F910F91FF90EF9041
:100CA0000895A1E21A2EAA1BBB1BFD010DC0AA1FAD
:100CB000BB1FEE1FFF1FA217B307E407F50720F0C5
:100CC000A21BB30BE40BF50B661F771F881F991F40
:100CD0001A9469F760957095809590959B01AC0189
:100CE000BD01CF010895052E97FB1EF400940E94CC
:100CF0008A0657FD07D00E94510607FC03D04EF428
:100D00000C948A0650954095309521953F4F4F4F52
:100D10005F4F089590958095709561957F4F8F4FA7
:080D20009F4F0895F894FFCFE6
:100D2800000000FF000000FF000000FFFFFFFFFFC2
:100D3800FF00FF7F004B0082BE000B02C5001502BA
:100D4800CD00F101010000000000000000000000DB
:100D58000000000000000000000000000200020087
:100D680000000100202020202020202020202020FA
:100D7800202020004E4F5420464F554E44004C45ED
:100D8800445F4F4E004C45445F4F46460052474231
:020D9800000059
:00000001FF
